:020000040800F2
:100000000000012069140008090500080B0500081C
:100010000D0500080F05000811050008000000008C
:1000200000000000000000000000000013050008B0
:100030001505000800000000170500081905000854
:10004000AD140008AD140008AD140008AD1400088C
:10005000AD140008AD140008AD140008AD1400087C
:10006000AD140008AD140008AD140008AD1400086C
:10007000AD140008AD140008AD140008AD1400085C
:10008000AD140008AD140008AD140008AD1400084C
:10009000AD140008AD140008AD140008AD1400083C
:1000A000AD140008AD140008AD140008AD1400082C
:1000B000AD140008AD140008AD140008AD1400081C
:1000C000AD140008AD140008AD140008AD1400080C
:1000D000AD140008AD140008AD140008AD140008FC
:1000E000AD140008AD140008AD14000800000000B5
:1000F0000000000000000000000000000000000000
:100100000000000000000000AD140008AD1400085D
:10011000AD140008AD14000821050008AD14000856
:10012000AD140008AD140008AD140008AD140008AB
:10013000AD1400080000000000000000AD1400082D
:10014000AD140008AD140008AD140008AD1400088B
:10015000000000000000000000000000000000009F
:10016000000000000000000000000000000000008F
:10017000000000000000000000000000000000007F
:10018000000000000000000000000000000000006F
:10019000000000000000000000000000000000005F
:1001A000000000000000000000000000000000004F
:1001B000000000000000000000000000000000003F
:1001C000000000000000000000000000000000002F
:1001D000000000000000000000000000000000001F
:0401E0005FF8E0F1F3
:1001E40053B94AB9002908BF00281CBF4FF0FF319A
:1001F4004FF0FF3000F00CB8ADF1080C6DE904CEFF
:1002040001F05CF9DDF804E0DDE9022304B0704795
:10021400704700BF0348044B834202D0034B03B131
:10022400184770470C0000200C000020000000005C
:1002340005480649091A891001EBD171491002D009
:10024400034B03B1184770470C0000200C0000203A
:100254000000000010B5064C237843B9FFF7DAFF1D
:10026400044B13B10448AFF300800123237010BD85
:100274000C000020000000009017000808B5054B92
:100284001BB105490548AFF30080BDE80840FFF7FE
:10029400CFBF00BF0000000010000020901700082E
:1002A4002DE9F04389B0002404940594069407943E
:1002B400294B9A6942F010029A619A6902F010027D
:1002C4000192019A9A6942F004029A619A6902F0D1
:1002D40004020292029A9A6942F020029A619B698E
:1002E40003F020030393039BDFF8749001224FF47F
:1002F400D051484601F01AF8DFF8688001224FF423
:100304004071404601F012F8144F0122072138468B
:1003140001F00CF84FF4D05304930126059606948B
:100324000225079504A9484600F014FF4FF44073D2
:10033400049305960694079504A9404600F00AFF25
:100344000723049305960694079504A9384600F0FC
:1003540001FF09B0BDE8F083001002400014014021
:10036400001001400008014030B583B0002500951D
:1003740001950A4C0A4B236040F69F736360A560A5
:100384000A23E360A561204600F08EFA00950195EA
:100394006946204600F0A2FA03B030BD2C000020CC
:1003A4000010004030B595B03422002107A801F0B8
:1003B4007CF8002401940294039404940594022389
:1003C400069301250B9510230C9306A800F020FB3F
:1003D4000F2301930294039404940594214601A8E5
:1003E40000F002FE014B1D6015B030BD70004242AA
:1003F40010B500F0BFFAFFF7D5FFFFF751FFFFF785
:10040400B3FF084800F03AF97B24B4F5A77FFBD288
:10041400204600F051F84FF47A7000F0CFFA3234ED
:10042400A4B2F2E72C00002010B5022818D003284B
:100434002AD0012800D010BD1D4C00224FF40071B9
:10044400204600F073FF01224FF40071194800F0B8
:100454006DFF01224FF48071204600F067FFEAE748
:1004640000224FF40071134800F060FF104C012289
:100474004FF40071204600F059FF01224FF48071BF
:10048400204600F053FFD6E7094C00224FF4807158
:10049400204600F04BFF01224FF40071054800F0A4
:1004A40045FF01224FF40071204600F03FFFC2E7F0
:1004B400000801400010014010B40D4CA4FB0032B0
:1004C400D20802EB82025100411A0A4B19700A4AFF
:1004D400A2FB00325209642303FB12039BB2A4FB68
:1004E4000313DB0805490B70054B1A7010BC7047E9
:1004F400CDCCCCCC280000201F85EB512900002056
:100504002A0000207047FEE7FEE7FEE7FEE770479B
:100514007047704708B500F03FFA08BD10B52F4882
:1005240000F0C2F82E4B1B7893B12D4B1B78012B96
:1005340025D02B4B1B78022B38D0294A1378013352
:10054400DBB21370022B02D9134600221A7010BDBD
:10055400244C00224FF40061204600F0E7FE012203
:100564004FF48051204600F0E1FE012211461E485E
:1005740000F0DCFE1D4B1878FFF756FFD5E7194C49
:1005840001224FF40061204600F0D0FE00224FF417
:100594008051204600F0CAFE01221146124800F0A4
:1005A400C5FE134B1878FFF73FFFC2E70D4C01223D
:1005B4004FF40061204600F0B9FE01224FF480514F
:1005C400204600F0B3FE00220121074800F0AEFEF1
:1005D400084B1878FFF728FFAFE700BF2C00002076
:1005E4002B000020001001400014014028000020CE
:1005F400290000202A00002082B00E4B9A6942F0A4
:1006040001029A619A6902F001020092009ADA6981
:1006140042F08052DA61DB6903F080530193019B5D
:10062400054A536823F0E06343F00073536002B05B
:10063400704700BF001002400000014002680E4BEA
:100644009A4200D0704700B583B003F50033DA69ED
:1006540042F01002DA61DB6903F010030193019B9D
:1006640000221146362000F079FE362000F0AAFE62
:1006740003B05DF804FB00BF001000400268D368BB
:1006840043F00103D3600268936803F00703062B69
:1006940003D0136843F001031360002070477047D0
:1006A400704770477047704710B5044603681A696D
:1006B40012F0020F11D0DA6812F0020F0DD06FF0B1
:1006C40002021A610123037703689B6913F0030F85
:1006D40070D0FFF7E6FF0023237723681A6912F02E
:1006E400040F12D0DA6812F0040F0ED06FF0040277
:1006F4001A610223237723689B6913F4407F5FD038
:100704002046FFF7CEFF0023237723681A6912F0EF
:10071400080F12D0DA6812F0080F0ED06FF008023A
:100724001A61042323772368DB6913F0030F4ED087
:100734002046FFF7B6FF0023237723681A6912F0D7
:10074400100F12D0DA6812F0100F0ED06FF01002F2
:100754001A61082323772368DB6913F4407F3DD0B3
:100764002046FFF79EFF0023237723681A6912F0BF
:10077400010F03D0DA6812F0010F36D123681A6929
:1007840012F0800F03D0DA6812F0800F34D123689E
:100794001A6912F0400F03D0DA6812F0400F32D118
:1007A40023681A6912F0200F03D0DA6812F0200FC0
:1007B40030D110BDFFF774FF2046FFF773FF8AE7BF
:1007C4002046FFF76DFF2046FFF76CFF9BE72046AE
:1007D400FFF766FF2046FFF765FFACE72046FFF70B
:1007E4005FFF2046FFF75EFFBDE76FF001021A616D
:1007F4002046FFF754FFC1E76FF080021A612046DC
:1008040000F090F8C3E76FF040021A612046FFF74A
:100814004AFFC5E76FF020021A61204600F081F814
:10082400C7E7000003681F4A90420ED0B0F1804F22
:100834000BD0A2F59432904207D002F58062904228
:1008440003D002F58062904203D123F070034A681A
:100854001343144A90420ED0B0F1804F0BD0A2F54E
:100864009432904207D002F58062904203D002F5A0
:100874008062904203D123F44073CA68134323F087
:1008840080034A69134303608B68C3620B68836205
:10089400044B984202D00123436170470B69036300
:1008A400F9E700BF002C0140B0B110B5044690F840
:1008B4003D3063B1022384F83D30214651F8040BE6
:1008C400FFF7B0FF012384F83D30002010BD80F80D
:1008D4003C30FFF7B3FEEDE70120704790F83C3061
:1008E400012B1CD070B4012680F83C60022380F8F0
:1008F4003D3002685568936825F070050C682C43F8
:1009040023F080054B682B4354600268936080F8A1
:100914003D60002380F83C30184670BC70470220CC
:10092400704770477047000010B504460E4B1878A6
:100934004FF47A73B3FBF0F30C4A1068B0FBF3F096
:1009440000F04EFD68B90F2C01D901200AE0002205
:1009540021464FF0FF3000F001FD054B1C600020E4
:1009640000E0012010BD00BF0000002008000020AE
:100974000400002008B5074A136843F0100313600D
:10098400032000F0D9FC0020FFF7CEFFFFF734FE70
:10099400002008BD00200240034A1168034B1B7865
:1009A4000B441360704700BF6C000020000000205F
:1009B400014B1868704700BF6C00002038B504462E
:1009C400FFF7F6FF0546B4F1FF3F02D0044B1B7856
:1009D4001C44FFF7EDFF401BA042FAD338BD00BF13
:1009E4000000002082B0084B1B68084AA2FB0323C6
:1009F4005B0A00FB03F0019000BF019B5A1E0192A9
:100A0400002BF9D102B0704708000020D34D6210CA
:100A1400002800F0618270B582B00446036813F0C8
:100A2400010F2CD0AA4B5B6803F00C03042B1DD0E0
:100A3400A74B5B6803F00C03082B12D0A368B3F533
:100A4400803F41D0002B55D103F1804303F504339B
:100A54001A6822F480321A601A6822F480221A601A
:100A640037E09B4B5B6813F4803FE7D0984B1B68DF
:100A740013F4003F03D0A368002B00F02F822368F7
:100A840013F0020F75D0924B5B6813F00C0F5FD01C
:100A94008F4B5B6803F00C03082B54D06369002B65
:100AA40000F089808B4B01221A60FFF781FF054615
:100AB400874B1B6813F0020F74D1FFF779FF401BBB
:100AC4000228F5D9032010E2814A136843F48033E5
:100AD4001360A36843B3FFF76BFF05467C4B1B68A9
:100AE40013F4003FCBD1FFF763FF401B6428F5D913
:100AF4000320FAE1B3F5A02F09D0754B1A6822F44C
:100B040080321A601A6822F480221A60E1E703F145
:100B14008043A3F53C331A6842F480221A601A68B1
:100B240042F480321A60D4E7FFF742FF0546684B6F
:100B34001B6813F4003FA2D0FFF73AFF401B642860
:100B4400F5D90320D1E1624B5B6813F4803FA5D152
:100B54005F4B1B6813F0020F03D06369012B40F055
:100B6400BF815B4A136823F0F803A16943EAC10318
:100B74001360236813F0080F32D0E369002B5BD0B5
:100B8400554B01221A60FFF713FF0546504B5B6A71
:100B940013F0020F21D1FFF70BFF401B0228F5D9F8
:100BA4000320A2E14A4A136823F0F803A16943EA47
:100BB400C1031360DDE7474B00221A60FFF7F8FE1C
:100BC4000546434B1B6813F0020FD2D0FFF7F0FE2B
:100BD400401B0228F5D9032087E10120FFF702FF1B
:100BE400236813F0040F00F09780394BDB6913F08E
:100BF400805F33D1364BDA6942F08052DA61DB69C7
:100C040003F080530193019B0125344B1B6813F4BB
:100C1400807F25D02369012B36D0002B4CD103F1E2
:100C2400804303F504331A6A22F001021A621A6A35
:100C340022F004021A622CE0274B00221A60FFF70C
:100C4400B7FE0546224B5B6A13F0020FC8D0FFF7CC
:100C5400AFFE401B0228F5D9032046E10025D4E766
:100C64001E4A136843F480731360FFF7A1FE06461F
:100C74001A4B1B6813F4807FCCD1FFF799FE801BBD
:100C84006428F5D9032030E1114A136A43F00103C3
:100C94001362236973B3FFF78BFE06460C4B1B6A82
:100CA40013F0020F37D1FFF783FE801B41F2883324
:100CB4009842F3D9032018E1052B11D0044B1A6A8A
:100CC40022F001021A621A6A22F004021A62E0E7B0
:100CD4000010024000004242800442420070004082
:100CE400864B1A6A42F004021A621A6A42F001023E
:100CF4001A62CEE7FFF75CFE0646804B1B6A13F0D0
:100D0400020F08D0FFF754FE801B41F2883398424B
:100D1400F3D90320E9E075BBE36A002B6ED0774A70
:100D2400526812F4803F05D0744A526802F00C02F3
:100D3400082A26D0022B4AD1704B1B6813F0805F1F
:100D440007D06E4BDB6A03F0F003626B934240F012
:100D5400C9806B4B00221A60FFF72AFE0546674BD9
:100D64001B6813F0006F13D0FFF722FE401B6428AA
:100D7400F5D90320B9E0614AD36923F08053D361E4
:100D8400CAE75E4AD26A12F4803FD3D00120ACE0B5
:100D94005A4AD36A23F0F003616B0B43D362D36ADC
:100DA40023F47063216B0B43D362554B01221A6009
:100DB400FFF7FEFD0546514B1B6813F0006F1DD174
:100DC400FFF7F6FD401B6428F5D903208DE04B4A5C
:100DD400D36A23F48033D362494B00221A60FFF7AD
:100DE400E7FD0546454B1B6813F0006F06D0FFF77F
:100DF400DFFD401B6428F5D9032076E0236A002B2D
:100E040072D03E4A526802F00C02082A54D0022BD7
:100E140011D03C4B00221A60FFF7CAFD0446374B41
:100E24001B6813F0007F45D0FFF7C2FD001B0228AA
:100E3400F5D9032059E0334B00221A60FFF7B8FDBF
:100E440005462E4B1B6813F0007F06D0FFF7B0FD5C
:100E5400401B0228F5D9032047E0636AB3F5803FBD
:100E64001AD026494B6823F47413626AA06A0243B9
:100E740013434B60234B01221A60FFF799FD04468C
:100E84001E4B1B6813F0007F12D1FFF791FD001B6E
:100E94000228F5D9032028E0184AD36A61680B4375
:100EA400D362D36A23F00F03E1680B43D362D8E71C
:100EB40000201AE0002018E0012B18D00F4B5B68CB
:100EC40003F48031626A914213D103F47013A26A6D
:100ED400934210D1002008E001207047012004E073
:100EE400012002E0012000E0002002B070BD0120DA
:100EF400FBE70120F9E70120F7E700BF00100240FB
:100F04006800424260004242F0B589B0324C04AD00
:100F140094E80F0007C52B806D46103494E80F0049
:100F240085E80F002D4B5B6803F00C02082A02D001
:100F34002B4809B0F0BDC3F3834208A90A4412F850
:100F4400104C13F4803F42D02449CB6A03F00F03C2
:100F540008AA134413F8202CCB6A13F4803F30D032
:100F6400CD6AC5F303150135CE6AC6F303260236EE
:100F7400A6FB04677B01700143EAD661831B61EB26
:100F8400070C4FEA8C1141EA93619801C01A61EB96
:100F94000C01CB0043EA50734FEAC00C19461CEB1A
:100FA400060047EB01014B0243EAD05346023046A8
:100FB4001946A5FB0223FFF713F90D2CB9D14008FC
:100FC400B7E7074800FB04F0B0FBF2F0F5E705488B
:100FD40000FB04F0ADE700BFA817000800100240B2
:100FE40000127A0000093D00002800F0A08070B5CE
:100FF4000446534B1B6803F007038B420BD2504A41
:10100400136823F007030B431360136803F007030B
:101014008B4240F08E80236813F0020F17D013F038
:10102400040F04D0474A536843F4E06353602368D1
:1010340013F0080F04D0434A536843F460535360D9
:10104400404A536823F0F003A068034353600D46FD
:10105400236813F0010F31D06368012B20D0022BD9
:1010640025D0384A126812F0020F64D035494A6814
:1010740022F0030213434B60FFF79AFC0646314B00
:101084005B6803F00C036268B3EB820F16D0FFF7C2
:101094008FFC801B41F288339842F0D9032045E04D
:1010A400284A126812F4003FE0D101203EE0254AAC
:1010B400126812F0007FD9D1012037E0204B1B6861
:1010C40003F00703AB420AD91D4A136823F0070350
:1010D4002B431360136803F00703AB422DD123683D
:1010E40013F0040F06D0174A536823F4E063E16851
:1010F4000B435360236813F0080F07D0114A536859
:1011040023F46053216943EAC1035360FFF7FCFEF3
:101114000C4B5B68C3F303130B4AD35CD8400B4BF3
:1011240018600B4B1868FFF7FFFB002070BD01200F
:1011340070470120FAE70120F8E70120F6E700BF35
:101144000020024000100240C817000808000020D8
:1011540004000020F0B482B000263546A0E0002A46
:1011640058D0012A10D1CE680EE06A4FBA4251D04D
:1011740048D9694FBA424DD007F58037BA4249D0B1
:10118400A7F58017BA4245D0FF2B57D88446FF2BCA
:1011940057D8AC00DCF800200F27A74022EA07024A
:1011A40006FA04F42243CCF800204A6812F0805F67
:1011B40075D05A4A946944F001049461926902F02A
:1011C40001020192019AAC08A71C554A52F8272043
:1011D40005F00307BF004FF00F0C0CFA07FC22EADE
:1011E4000C0C504A904232D002F58062904271D089
:1011F40002F5806290426FD002F58062904224D062
:10120400042225E0A7F58017BA4203D007F58037FA
:10121400BA42B9D18A687AB1012A08D04461082651
:10122400B2E7CE680836AFE7CE680C36ACE70461A7
:101234000826A9E70026A7E70426A5E700F1040C81
:10124400A5E7A5F10804A400A4E7032200E0002216
:10125400BA4042EA0C020234314F47F824204A686B
:1012640012F4803F3AD0304C22681A4322604A6814
:1012740012F4003F38D02C4C62681A4362604A680A
:1012840012F4801F36D0284CA2681A43A2604A6820
:1012940012F4001F34D0244CE2681343E360013598
:1012A4000B6833FA05F231D00124AC4023409C4250
:1012B400F5D14A68122AB7D03FF657AF022AB0D008
:1012C4007FF64DAF032AB5D0112A7FF45DAFCE6807
:1012D400043659E70122BBE70222B9E7124C22681F
:1012E40022EA03022260C2E70F4C626822EA030288
:1012F4006260C4E70C4CA26822EA0302A260C6E75B
:10130400094CE26822EA0303E360C8E702B0F0BCD8
:10131400704700BF0000211000003110001002408F
:101324000000014000080140000401400AB10161CD
:101334007047090401617047074AD36823F4E063E6
:101344001B041B0C000200F4E060184340F0BF6073
:1013540040F40030D060704700ED00E030B4174B2B
:10136400DB68C3F30223C3F10704042C28BF04245D
:101374001D1D062D01D9033B00E000234FF0FF356E
:1013840005FA04F421EA0401994005FA03F322EA78
:1013940003031943002809DB0901C9B200F16040C5
:1013A40000F5614080F8001330BC704700F00F0076
:1013B4000901C9B2024B1954F6E700BF00ED00E081
:1013C40014ED00E0002807DB00F01F0240090123B0
:1013D4009340024A42F82030704700BF00E100E029
:1013E4000138B0F1807F0AD2064B5860064AF021DA
:1013F40082F823100020986007221A6070470120A9
:10140400704700BF10E000E000ED00E0124B1A68E6
:1014140042F001021A605968104A0A405A601A6878
:1014240022F0847222F480321A601A6822F4802234
:101434001A605A6822F4FE025A601A6822F0A05216
:101444001A604FF47F029A600022DA62044B4FF074
:1014540000629A60704700BF001002400000FFF075
:1014640000ED00E0002103E00A4B5B5843500431D7
:1014740009480A4B42189A42F6D3094A02E000236B
:1014840042F8043B074B9A42F9D3FFF7BFFFFEF73C
:10149400AFFF7047E8170008000000200C00002090
:1014A4000C00002070000020FEE703460244934233
:1014B40000D1704703F8011BF9E700002DE9F0475C
:1014C4008C460446089E002B40F086808A421546CE
:1014D40048D9B2FA82F24AB1C2F1200701FA02F302
:1014E40020FA07F7954047EA030C94404FEA154E5B
:1014F400BCFBFEF71FFA85F80EFB17C307FB08F9C0
:10150400210C41EA0343994509D9EB1807F1FF314E
:1015140080F0E180994540F2DE80023F2B44A3EB4A
:101524000903B3FBFEF00EFB103300FB08F1A4B279
:1015340044EA0344A14209D92C1900F1FF3380F095
:10154400C880A14240F2C58002382C4440EA0740DA
:101554000027641A1EB10023D440C6E9004339466B
:10156400BDE8F087002A54D0B2FA82F2002A40F093
:10157400B4800127491B4FEA15481FFA85F9B1FBCE
:10158400F8FE08FB1E1109FB0EF04FEA144C4CEA5E
:101594000143984207D9EB180EF1FF3102D2984269
:1015A40000F2EB808E461B1AB3FBF8F008FB1033F5
:1015B40009FB00F9A4B244EA0344A14507D92C1954
:1015C40000F1FF3302D2A14500F2DB801846A4EB00
:1015D400090440EA0E40BDE78B4208D9002E75D0BD
:1015E4000027C6E9000138463946BDE8F087B3FA5A
:1015F40083F77FB98B4202D3824200F2BC80841A03
:1016040061EB030301209C46002EA8D0C6E9004CE0
:10161400A5E7FFDEC7F12005BB4022FA05FC4CEA32
:10162400030C21FA05F44FEA1C4EB4FBFEF91FFA31
:101634008CF80EFB194420FA05F3B94009FB08FAAB
:1016440019430B0C43EA0444A24502FA07F200FAD8
:1016540007F30BD91CEB040409F1FF3080F08980F7
:10166400A24540F28680A9F102096444A4EB0A046D
:10167400B4FBFEF00EFB104400FB08FA89B241EA09
:101684000444A24508D91CEB040400F1FF316CD2D8
:10169400A2456AD90238644440EA0940A0FB0289A1
:1016A400A4EB0A044C454146CE4655D352D0002EF5
:1016B4006AD05A1A64EB0E0404FA05F522FA07F309
:1016C400FC401D43C6E90054002748E7374630462E
:1016D40045E718463AE70F4621E79540C2F1200353
:1016E40021FA03F04FEA1548B0FBF8F71FFA85F921
:1016F40008FB170E24FA03FC914007FB09FA4CEA95
:101704000101080C40EA0E40824504FA02F407D9AC
:10171400281807F1FF332AD2824528D9023F2844EA
:10172400A0EB0A00B0FBF8FC08FB1C000CFB09F35F
:1017340089B241EA00418B4208D969180CF1FF30A3
:1017440011D28B420FD9ACF1020C2944C91A4CEACC
:10175400074714E74345AAD2B8EB020169EB0C0230
:1017640001389646A3E78446F0E7084694E71F4607
:10177400D6E781467AE7384646E7AEF1020E2B44B7
:1017840011E702382C4422E73746E8E6F8B500BFF3
:10179400F8BC08BC9E467047F8B500BFF8BC08BC4E
:0417A4009E467047A6
:1017A800000004050607080900000000000D0000FD
:1017B8000102030405060708090A0B0C0D0E0F1099
:1017C80000000000000000000102030406070809E9
:0817D800E8FCFF7F01000000A6
:0417E000810200087A
:0417E400590200089E
:0C17E80001000000100000000024F400CC
:040000050800146972
:00000001FF
