:020000040800F2
:10000000000001208D180008D1180008D118000840
:10001000D1180008D1180008D1180008000000000D
:1000200000000000000000000000000001070008C0
:10003000D11800080000000061070008A5070008AB
:10004000D1180008D1180008D1180008D1180008EC
:10005000D1180008D1180008D1180008D1180008DC
:10006000D1180008D1180008D1180008D1180008CC
:10007000D1180008D1180008D1180008D1180008BC
:10008000D1180008D1180008D1180008D1180008AC
:10009000D1180008D1180008D1180008D11800089C
:1000A000D1180008D1180008D1180008D11800088C
:1000B000D1180008D1180008D1180008D11800087C
:1000C000D1180008D1180008D1180008D11800086C
:1000D000D1180008D1180008D11800084103000801
:1000E000D1180008D1180008D1180008000000003D
:1000F0000000000000000000000000000000000000
:100100000000000000000000D1180008D11800080D
:10011000D1180008D1180008D1180008D11800081B
:10012000D1180008D1180008D1180008D11800080B
:10013000D11800080000000000000000D1180008DD
:10014000D1180008D1180008D1180008D1180008EB
:10015000000000000000000000000000000000009F
:10016000000000000000000000000000000000008F
:10017000000000000000000000000000000000007F
:10018000000000000000000000000000000000006F
:10019000000000000000000000000000000000005F
:1001A000000000000000000000000000000000004F
:1001B000000000000000000000000000000000003F
:1001C000000000000000000000000000000000002F
:1001D000000000000000000000000000000000001F
:0401E0005FF8E0F1F3
:1001F0000348044B834202D0034B03B118477047B6
:10020000040000200400002000000000054806490A
:10021000091A891001EBD171491002D0034B03B1C7
:100220001847704704000020040000200000000070
:1002300010B5064C237843B9FFF7DAFF044B13B12E
:100240000448AFF300800123237010BD0400002098
:1002500000000000F018000808B5054B1BB1054967
:100260000548AFF30080BDE80840FFF7CFBF00BFEF
:100270000000000008000020F018000800B583B05E
:1002800002E0642000F0EEFF084B186800F016FD55
:100290000028F6D000220DF10701044B186800F089
:1002A00087FC9DF8070000F045F9EAE7504500207B
:1002B00000B583B01E23ADF80630BDF8063001331B
:1002C000ADF8063000231A460DF106010448006817
:1002D00000F0AAFB4FF47A7000F0C4FFEDE700BF16
:1002E0005045002000B583B000F058F800F098F8B1
:1002F00000F0BEF800240194012500952346202239
:100300000A490B4800F050FE019400952346202234
:100310000849094800F048FE22462946052000F019
:100320006BFB064B186000F071FEFEE71819000821
:100330007D02000820190008B10200085045002085
:1003400008B5124B1B6813F0200F0BD00F4B1A6827
:1003500022F020021A605B68302B04D00B4B5B68E4
:10036000312B09D008BD0A4800F0D8F8094A1369B2
:1003700043F080531361F1E7074800F0CFF8054AD6
:10038000136943F480531361ECE700BF0048004059
:100390000819000800100140101900081E4A1368CF
:1003A00043F4803313601C4B1B6813F4003FFAD0F6
:1003B0001A4A136843F017031360174B5A685A60C0
:1003C0005A6842F480625A605A685A60DA6ADA629D
:1003D000DA6ADA625A6842F480325A605A6842F441
:1003E00080125A601A6842F080721A600A4B1B68C9
:1003F00013F0007FFAD0084B5A6822F003025A60CB
:100400005A6842F002025A60034B5B6803F00C0327
:10041000082BF9D1704700BF0010024000200240B5
:10042000124B9A6942F010029A619A6942F00402F2
:100430009A61A3F580335A6822F440425A605A68A0
:1004400042F480525A601A6942F000621A61A3F5C0
:1004500000631A6822F400221A601A6842F48022AB
:100460001A601A6822F440321A6070470010024085
:10047000224B9A6942F020029A619A6942F0010285
:100480009A611F494A6842F030024A60DA6942F4D0
:100490008022DA61A3F57C435A6822F004025A6094
:1004A0005A6842F008025A605A6842F003025A60E1
:1004B0005A6822F080025A605A6842F040025A603C
:1004C0005A6822F030025A60A3F54C4340F6C41239
:1004D0009A60DA6842F00802DA60DA6842F00402F0
:1004E000DA60DA6842F40052DA60DA6842F0200238
:1004F000DA60044B80225A60704700BF001002404F
:100500000000014000E100E0034B1B6813F0400FC6
:10051000FAD0014B586070470048004038B5054696
:100520000024285D20B10134E4B2FFF7EDFFF8E7C5
:1005300038BD0000034B1B6813F0400FFAD0014B8D
:100540005860704700480040124B1A6842F00102A0
:100550001A605968104A0A405A601A6822F0847278
:1005600022F480321A601A6822F480221A605A68D3
:1005700022F4FE025A601A6822F0A0521A604FF468
:100580007F029A600022DA62044B4FF000629A60A8
:10059000704700BF001002400000FFF000ED00E0D7
:1005A00038B5044610F0070F02D020F007040834D5
:1005B00000F062FD0F4B1B688BB10F4B1B681C4496
:1005C00044F2F732944210D8A34210D2094A156877
:1005D0001D44094B1C6000F0D3FD284638BD074B75
:1005E00023F00703034A1360E7E70025F3E700253C
:1005F000F1E700BF20000020244400202C00002050
:10060000704700F1080343604FF0FF328260C3601F
:100610000361002303607047002303617047436850
:100620004B609A688A605160996008610368013381
:100630000360704730B40D68B5F1FF3F02D000F1A0
:10064000080202E0026904E01A4653681C68AC42E2
:10065000FAD953684B6099608A60516008610368F9
:100660000133036030BC70470369416882688A6067
:10067000416851605A68824206D0002202611A68BD
:10068000013A1A601868704782685A60F5E782B0CC
:10069000002301934FF0BF0383F31188BFF36F8FE3
:1006A000BFF34F8F019B002BFCD002B070470000BE
:1006B00006480068006880F3088862B661B6BFF338
:1006C0004F8FBFF36F8F00DF00BF000008ED00E029
:1006D0004FF0807340F8043C21F0010140F8081C01
:1006E000034B40F80C3C40F8202C4038704700BFCA
:1006F0008F0600080000000000000000000000005D
:10070000074B19680868B0E8F00F80F30988BFF359
:100710006F8F4FF0000080F311884EF00D0E704780
:10072000284400204FF0BF0383F31188BFF36F8F7D
:10073000BFF34F8F024A136801331360704700BF45
:1007400000000020034A1368013B13600BB983F3D8
:100750001188704700000020000000000000000029
:10076000EFF30980BFF36F8F0D4B1A6820E9F00F8C
:1007700010602DE908404FF0BF0080F3118800F0B1
:100780008BFD4FF0000080F31188BDE80840196828
:100790000868B0E8F00F80F30988BFF36F8F7047E7
:1007A0002844002008B54FF0BF0383F31188BFF33E
:1007B0006F8FBFF34F8F00F06DFC18B1034B4FF0FC
:1007C00080521A60002383F3118808BD04ED00E015
:1007D000054B00221A6005490A60054A4BF67F3135
:1007E000116007221A60704710E000E018E000E096
:1007F00014E000E010B50B4B1A6842F47F021A6057
:100800001A6842F07F421A60FFF7E2FF0024064BAD
:100810001C60FFF74DFF00F03FFDFFF738FF20465B
:1008200010BD00BF20ED00E00000002010B5044620
:10083000FFF778FFA26BE36B9A4204D00024FFF726
:1008400081FF204610BD0124F9E710B50446FFF7EB
:1008500069FFA36B23B90124FFF774FF204610BD85
:100860000024F9E770B504461646856B026C5AB948
:1008700003681BB100200135A56370BD806800F0DE
:10088000FBFD0023A360F6E76EB9406801F021F894
:10089000226C636813446360A268934219D323688F
:1008A00063600020E7E7C06801F013F8226C524251
:1008B000E3681344E36021688B4202D2A3681A44C0
:1008C000E260022E01D00020D5E725B1013D0020D5
:1008D000D1E70020CFE70020CDE7026C72B110B560
:1008E000C3681344C3608468A34201D30368C36030
:1008F0000C46C168204600F0ECFF10BD704738B5CB
:100900000546FFF70FFF95F8454064B203E000F09D
:100910009DFD013C64B2002C08DD6B6A33B105F12A
:10092000240000F01DFD0028F3D0F0E7FF2385F838
:100930004530FFF707FFFFF7F5FE95F8444064B236
:1009400003E000F083FD013C64B2002C08DD2B695C
:1009500033B105F1100000F003FD0028F3D0F0E7FB
:10096000FF2385F84430FFF7EDFE38BD38B5044667
:100970000D46FFF7D7FE2168E26B236C03FB0210E4
:10098000A0600020A0636160013A02FB0313E360F2
:10099000FF2384F8443084F84530A5B923691BB996
:1009A000FFF7D0FE012038BD04F1100000F0D8FCA4
:1009B0000028F5D0084B4FF080521A60BFF34F8FDC
:1009C000BFF36F8FECE704F11000FFF71AFE04F19C
:1009D0002400FFF716FEE3E704ED00E010B5029BEC
:1009E0000C4639B91B60D8631C6401211846FFF717
:1009F000BDFF10BD1A60F6E7F0B583B005460E46A0
:100A0000174601FB00F04830FFF7CAFD044638B135
:100A100000903B4600F1480231462846FFF7DEFFD2
:100A2000204603B0F0BD0000F0B585B004460F4687
:100A300001921E46002539E0324639462046FFF72E
:100A400011FF636A6BB938B13C4B4FF080521A60AA
:100A5000BFF34F8FBFF36F8FFFF774FE012005B018
:100A6000F0BD04F1240000F07BFC0028F4D0334BEF
:100A70004FF080521A60BFF34F8FBFF36F8FEBE7D9
:100A8000FFF760FE0020EAE702A800F0A5FC0125C0
:100A900019E0002384F8443021E0002384F8453035
:100AA00023E02046FFF72BFF00F06AFBFFF73AFE3A
:100AB000A26BE36B9A42BFD3022EBDD0019B002BE9
:100AC000DED0002DE0D0FFF73DFE00F0D5FAFFF7B5
:100AD00029FE94F844305BB2B3F1FF3FD9D094F8CB
:100AE00045305BB2B3F1FF3FD7D0FFF72BFE01A932
:100AF00002A800F07DFCC8B92046FFF797FE002849
:100B0000CFD0019904F1100000F00AFC2046FFF755
:100B1000F6FE00F035FB0028C8D1084B4FF080529C
:100B20001A60BFF34F8FBFF36F8FBFE72046FFF709
:100B3000E6FE00F025FB002091E700BF04ED00E099
:100B4000F8B5EFF311864FF0BF0484F31188BFF3BB
:100B50006F8FBFF34F8F856BC46BA54205D3022BFC
:100B600003D0002086F31188F8BD1746054690F89B
:100B7000454064B2826B1A46FFF774FEB4F1FF3F42
:100B800005D0013464B285F845400120EAE76B6A7C
:100B90000BB90120E6E705F1240000F0E1FB18B1F4
:100BA00027B101203860DDE70120DBE70120D9E72C
:100BB000F0B585B004460F46019200263CE0394668
:100BC0002046FFF78AFE013DA563236923B9FFF79D
:100BD000B9FD012005B0F0BD04F1100000F0C0FB2C
:100BE0000028F4D0344B4FF080521A60BFF34F8F7F
:100BF000BFF36F8FEBE7FFF7A5FD0020EAE702A840
:100C000000F0EAFB012621E0002384F8443029E0CB
:100C1000002384F845302BE02046FFF770FE00F0FB
:100C2000AFFA09E02046FFF76AFE00F0A9FA204675
:100C3000FFF70BFE00283DD1FFF774FDA56B002DDB
:100C4000BDD1019B002BD6D0002ED8D0FFF77AFD66
:100C500000F012FAFFF766FD94F844305BB2B3F18E
:100C6000FF3FD1D094F845305BB2B3F1FF3FCFD016
:100C7000FFF768FD01A902A800F0BAFB0028D1D156
:100C80002046FFF7E2FD0028C6D0019904F12400B8
:100C900000F046FB2046FFF732FE00F071FA002814
:100CA000CAD1054B4FF080521A60BFF34F8FBFF38C
:100CB0006F8FC1E700208DE704ED00E010B504461A
:100CC000FFF730FDA46BFFF73DFD204610BD00008F
:100CD0000023092B0CD8074A52F833200AB10133FC
:100CE000F7E7044A42F8331002EBC3035860704739
:100CF000704700BF5445002070B504460D461646A7
:100D0000FFF710FD94F844305BB2B3F1FF3F0DD014
:100D100094F845305BB2B3F1FF3F0BD0FFF712FD03
:100D2000A36B5BB12046FFF7EAFD70BD002384F89A
:100D30004430EDE7002384F84530EFE7324629469A
:100D400004F1240000F0FAFAECE70000064B1B68FF
:100D5000012BFBD9054B4FF080521A60BFF34F8F28
:100D6000BFF36F8FF2E700BF3444002004ED00E0D2
:100D7000084B1B681B6823B9074B4FF0FF321A6002
:100D80007047044B1B68DB68DB685A68024B1A60CB
:100D9000704700BF2C440020D44400202DE9F047C8
:100DA00080469946089D099F0A9C266B02F1804265
:100DB000013A06EB820626F0070681B308460023B7
:100DC0000F2B06D8C25CE11881F834200AB1013338
:100DD000F6E7002384F84330042D00D90425E562AA
:100DE00065644FF0000AC4F848A0201DFFF714FC0A
:100DF00004F11800FFF710FC2461C5F10505A56199
:100E00006462C4F84CA084F850A04A46414630467B
:100E1000FFF75EFC206007B13C60BDE8F08700236F
:100E200084F83430D8E7000038B50024042C08D802
:100E300004EB840293000C481844FFF7E2FB0134F2
:100E4000F4E70A4D2846FFF7DCFB094C2046FFF784
:100E5000D8FB0848FFF7D5FB0748FFF7D2FB074B45
:100E60001D60074B1C6038BD34440020A84400209E
:100E7000BC440020E0440020F84400202C44002022
:100E80003044002010B50446FFF74CFC204A13689C
:100E9000013313601F4B1B685BB11F4B1B686BB9A1
:100EA0001C4B1B68DA6AE36A9A4207D8194B1C602C
:100EB00004E0184B1C601368012B26D0174A1368F6
:100EC00001331360E36A164A1268934201D9144A47
:100ED000136003EB83039A00211D12481044FFF7AF
:100EE0009EFBFFF72FFC0C4B1B686BB1094B1B687B
:100EF000DA6AE36A9A4207D20B4B4FF080521A60CB
:100F0000BFF34F8FBFF36F8F10BDFFF78DFFD5E796
:100F10009844002028440020F4440020A0440020ED
:100F2000A44400203444002004ED00E070B50446E1
:100F30000E46174B1D68174B18680430FFF794FBDB
:100F4000B4F1FF3F0DD02C44124B1B685C60A542EE
:100F500010D9114B18680F4B19680431FFF76AFB61
:100F600070BD002EEFD00B4B196804310B48FFF712
:100F700056FBF5E70A4B1868064B19680431FFF772
:100F800059FB084B1B68A342EAD9064B1C60E7E7F4
:100F90000C4500202844002030440020F844002064
:100FA0002C440020D44400202DE9F04385B00746AE
:100FB0008846144699469000FFF7F2FAE8B10646D3
:100FC0005420FFF7EDFA054698B10663D5B100232A
:100FD000039302950D9B01930C9B00934B46224675
:100FE00041463846FFF7DAFE2846FFF74BFF01205F
:100FF00005E03046FFF704FBE8E74FF0FF3005B0AF
:10100000BDE8F0834FF0FF30F9E7000000B583B092
:10101000134B019300230093802212491248FFF7DB
:10102000C3FF012804D0012805D003B05DF804FBFC
:1010300000F0B2FAF7E74FF0BF0383F31188BFF374
:101040006F8FBFF34F8F094B4FF0FF321A60084B81
:1010500001221A60074B00221A60FFF7CBFBE4E77E
:10106000D0440020281900084D0D0008D444002069
:10107000F44400200C450020024A13680133136039
:10108000704700BF9C440020014B1868704700BFA8
:101090000C450020F8B52F4B1B68002B52D12E4B6E
:1010A0001E6801361E6056B12C4B1B68B3423FD9F7
:1010B00000272B4B1B68002B49D0012747E0294A0A
:1010C0001168294B186810601960284A13680133A9
:1010D0001360FFF74DFEE7E70127224B1B681B68F3
:1010E00043B3204B1B68DB68DC6863689E4226D3F1
:1010F000251D2846FFF7B8FAA36A1BB104F11800B2
:10110000FFF7B2FAE36A1A4A1268934201D9184A01
:10111000136003EB83039A00294616481044FFF737
:101120007EFAE26A144B1B68DB6A9A42D4D2D4E797
:101130000027D2E7094B4FF0FF321A60B9E7074AA0
:101140001360B6E70D4A1368013313600027384671
:10115000F8BD00BF9C4400200C450020D444002072
:10116000104500202C44002030440020D8440020AA
:10117000A44400203444002028440020DC44002003
:1011800038B5FFF7CFFA2E4B1A68013A1A601B6880
:10119000002B4DD12B4B1B680BB9002449E00024D8
:1011A000294B1B681BB3284BDB68DC6804F1180073
:1011B000FFF75AFA251D2846FFF756FAE36A234A35
:1011C0001268934201D9214A136003EB83039A000A
:1011D00029461F481044FFF722FAE26A1D4B1B689C
:1011E000DB6A9A42DCD31C4B01221A60D8E70CB1AF
:1011F000FFF7BEFD194B1C6874B9174B1B68E3B1B0
:10120000174B4FF080521A60BFF34F8FBFF36F8FB1
:1012100001240EE0013C07D0FFF73CFF0028F9D085
:101220000D4B01221A60F5E70C4B00221A60E4E72F
:101230000024FFF787FA204638BD0024F9E700BFF5
:101240009C44002098440020E0440020A444002056
:10125000344400202844002010450020DC440020B5
:1012600004ED00E010B540B90A4B4FF080521A600F
:10127000BFF34F8FBFF36F8F10BD0446FFF7FCFE27
:1012800000212046FFF752FEFFF77AFF0028F3D136
:10129000EAE700BF04ED00E01C4B1B681BB11C4BD0
:1012A00001221A60704710B4194B00221A60194BC2
:1012B0001B6800E0013B03EB83018A0016498A5852
:1012C000002AF7D008469A00D418A10001444C68BF
:1012D00064684C601A4491000831084484420CD080
:1012E00003EB830291000C4A0A445268D1680B4A0E
:1012F0001160084A136010BC7047606803EB8302FA
:101300009100054A0A445060EAE700BF9C4400206F
:1013100010450020A444002034440020284400202C
:1013200010B50C46044B19681831FFF783F90121F9
:101330002046FFF7FBFD10BD2844002038B50D46C0
:101340001446064B19681831FFF769F90CB14FF0D4
:10135000FF3521462846FFF7E9FD38BD2844002027
:1013600038B5C368DC6804F118052846FFF77CF936
:10137000134B1B68E3B9251D2846FFF775F9E36A8F
:10138000104A1268934201D90E4A136003EB83039B
:101390009A0029460C481044FFF741F9E26A0B4BCA
:1013A0001B68DB6A9A4208D90120094B186005E0E6
:1013B00029460848FFF733F9F0E7002038BD00BFA1
:1013C0009C440020A44400203444002028440020F1
:1013D00010450020E0440020034B1B680360034BD2
:1013E0001B684360704700BFD84400200C450020B4
:1013F000F8B504460D46FFF795F9124B1968636876
:10140000C81A2A68B2F1FF3F14D027680E4E36681A
:10141000B74201D08B4212D9824203D800232B60FD
:10142000012408E05B1A13442B602046FFF7D4FF29
:10143000002400E00024FFF785F92046F8BD0124D0
:10144000F9E700BF0C450020D8440020014B0122E1
:101450001A60704710450020054B1B6833B1054BDF
:101460001B680BB1002070470220704701207047B5
:10147000F44400209C44002020B338B50446826C1C
:10148000013A8264C06A616C88421DD00AB10020B2
:1014900038BD251D2846FFF7E7F8636CE362C3F10A
:1014A0000502A261094A1268934201D9074A1360F2
:1014B00003EB83039A00294605481044FFF7AFF871
:1014C0000120E5E7002070470020E1E7A444002068
:1014D00034440020064B1A6813682BB901230360BB
:1014E00023B9D368186870470023F8E700207047D5
:1014F0001445002008B54160006191420CD8D21A11
:1015000083699A4201D3012008BD011D094B186867
:10151000FFF790F80020F7E79A4201D2994206D2ED
:10152000011D054B1868FFF785F80020ECE7012046
:10153000EAE700BF184500201445002038B5FFF742
:10154000F1F80F4B1B6813B1FFF7FCF838BD0D4DD8
:101550002846FFF756F80C4C2046FFF752F80B4B85
:101560001D600B4B1C60002210210A20FFF744FA7B
:10157000034B18600028E7D00649FFF7A9FBE3E713
:10158000484500201C45002030450020144500201F
:10159000184500203019000800B583B0FFF7CEFFD2
:1015A000084B1B6863B1084B01930323009300238E
:1015B000802206490648FFF7F7FC03B05DF804FBFC
:1015C0000020FAE7484500204C4500203819000863
:1015D0007518000830B585B0134C25680DB31C464E
:1015E000009101920290052913DCFFF735FF0228D4
:1015F00007D000231A4669460B480068FFF714FA23
:101600000DE00023089A694607480068FFF70CFAC6
:1016100005E00023224669462846FFF791FA05B007
:1016200030BD0020FBE700BF4845002070B582B008
:10163000164B1B681A6812B3DB681E68DC68251D30
:101640002846FFF711F8236A2046984794F824307B
:1016500013F0040FECD0A36933449E4207D26360B9
:1016600024612946094B1868FEF7E4FFE0E70021F2
:1016700000910B4632462046FFF7ACFFD8E7044AFC
:10168000106802490860136002B070BD1445002064
:101690001845002038B50546FFF7F6FC0446074B11
:1016A0001B68834205D800232B60044B1C60204636
:1016B00038BDFFF7BBFF01232B60F6E74445002050
:1016C00070B582B005460E46124B1B68DB68DC68BD
:1016D000201DFEF7C9FF94F8243013F0040F08D141
:1016E00023F0010384F82430236A2046984702B08F
:1016F00070BDA1692B46324629442046FFF7FAFE09
:101700000028F1D0002100910B462A462046FFF721
:1017100061FFE9E71445002070B582B006460C462B
:10172000FFF7AAFC01A8FFF7B5FF019B23BB054605
:101730000CB9B04217D224B1114B1B681B68CBB94E
:1017400001242246711B0F4B1868FFF7D5FAFFF7EB
:1017500017FD98B90C4B4FF080521A60BFF34F8FB2
:10176000BFF36F8F0AE0FFF70BFD29463046FFF706
:10177000A7FF03E00024E4E7FFF702FD02B070BD1D
:10178000184500204845002004ED00E030B589B040
:1017900006E007990698059B9847049B002B0BDAF7
:1017A000002204A9324B1868FFF702FA00285CD027
:1017B000049B002BF1DAECE7069C636913B1201D52
:1017C000FEF752FF03A8FFF765FF049B092BE7D83C
:1017D000DFE803F0050505272E3D0505272E94F8C3
:1017E000243043F0010384F824300599A5690B46A1
:1017F000024629442046FFF77DFE0028D0D0236A08
:101800002046984794F8243013F0040FC8D0A269FA
:10181000002100910B46059802442046FFF7DAFEAE
:10182000BEE794F8243023F0010384F82430B7E7AE
:1018300094F8243043F0010384F824300599A16121
:101840000346024601442046FFF754FEA8E794F8F9
:10185000243013F0020F04D023F0010384F8243065
:101860009EE72046FEF7CCFE9AE709B030BD00BFE8
:101870004845002000B583B001A8FFF72BFE019971
:10188000FFF74AFFFFF782FFF6E70000002103E0C1
:101890000A4B5B584350043109480A4B42189A429C
:1018A000F6D3094A02E0002342F8043B074B9A4270
:1018B000F9D3FEF749FEFEF715FD704748190008F9
:1018C000000000200400002004000020A4450020A7
:1018D000FEE70A44914200F1FF3300D1704710B592
:1018E00011F8014B914203F8014FF9D110BD0000EE
:1018F000F8B500BFF8BC08BC9E467047F8B500BFFD
:08190000F8BC08BC9E467047CC
:101908004F46460D0A0000004F4E0D0A0000000029
:101918004C454431000000004C45443200000000B2
:1019280049444C4500000000546D7251000000000D
:08193800546D72205376630028
:041940005902000840
:041944003102000864
:04194800AAAAAAAAF3
:040000050800188D4A
:00000001FF
