:020000040800F2
:10000000FFFF002091130008D5130008D513000846
:10001000D5130008D5130008D51300080000000010
:10002000000000000000000000000000D5130008E0
:10003000D513000800000000D5130008D5130008F0
:10004000D5130008D5130008D5130008D5130008F0
:10005000D5130008D5130008D5130008D5130008E0
:10006000D5130008D5130008D5130008D5130008D0
:10007000D5130008D5130008D5130008D5130008C0
:10008000D5130008D5130008D5130008D5130008B0
:10009000D5130008D5130008D5130008D5130008A0
:1000A000D5130008D5130008D5130008D513000890
:1000B000D5130008D5130008D5130008D513000880
:1000C000D5130008D5130008D5130008D513000870
:1000D000D5130008D5130008D51300083503000810
:1000E000D5130008D5130008D51300080000000040
:1000F0000000000000000000000000000000000000
:100100000000000000000000D5130008D51300080F
:10011000D5130008D5130008D5130008D51300081F
:10012000D5130008D5130008D5130008D51300080F
:10013000D51300080000000000000000D5130008DF
:10014000D5130008D5130008D5130008D5130008EF
:10015000000000000000000000000000000000009F
:10016000000000000000000000000000000000008F
:10017000000000000000000000000000000000007F
:10018000000000000000000000000000000000006F
:10019000000000000000000000000000000000005F
:1001A000000000000000000000000000000000004F
:1001B000000000000000000000000000000000003F
:1001C000000000000000000000000000000000002F
:1001D000000000000000000000000000000000001F
:0401E0005FF8E0F1F3
:1001E4000348044B834202D0034B03B118477047C2
:1001F4000400002004000020000000000548064917
:10020400091A891001EBD171491002D0034B03B1D3
:10021400184770470400002004000020000000007C
:1002240010B5064C237843B9FFF7DAFF044B13B13A
:100234000448AFF300800123237010BD04000020A4
:1002440000000000F413000808B5054B1BB1054974
:100254000548AFF30080BDE80840FFF7CFBF00BFFB
:100264000000000008000020F413000800B583B06B
:1002740002E0642000F068FF084B186800F08AFC74
:100284000028F6D000220DF10701044B186800F095
:10029400FBFB9DF8070000F045F9EAE72C45002038
:1002A40000B583B01E23ADF80630BDF80630013327
:1002B400ADF8063000231A460DF106010448006823
:1002C40000F056FB4FF47A7000F03EFFEDE700BFFC
:1002D4002C45002000B583B000F058F800F098F8E1
:1002E40000F0BEF800240194012500952346202245
:1002F4000A490B4800F0CAFD0194009523462022C8
:100304000849094800F0C2FD22462946052000F0AC
:1003140017FB064B186000F0EBFDFEE71C14000809
:100324007102000824140008A50200082C450020CE
:1003340008B5124B1B6813F0200F0BD00F4B1A6833
:1003440022F020021A605B68302B04D00B4B5B68F0
:10035400312B09D008BD0A4800F0D8F8094A1369BE
:1003640043F080531361F1E7074800F0CFF8054AE2
:10037400136943F480531361ECE700BF0048004065
:100384000C14000800100140141400081E4A1368DD
:1003940043F4803313601C4B1B6813F4003FFAD002
:1003A4001A4A136843F017031360174B5A685A60CC
:1003B4005A6842F480625A605A685A60DA6ADA62A9
:1003C400DA6ADA625A6842F480325A605A6842F44D
:1003D40080125A601A6842F080721A600A4B1B68D5
:1003E40013F0007FFAD0084B5A6822F003025A60D7
:1003F4005A6842F002025A60034B5B6803F00C0334
:10040400082BF9D1704700BF0010024000200240C1
:10041400124B9A6942F010029A619A6942F00402FE
:100424009A61A3F580335A6822F440425A605A68AC
:1004340042F480525A601A6942F000621A61A3F5CC
:1004440000631A6822F400221A601A6842F48022B7
:100454001A601A6822F440321A6070470010024091
:10046400224B9A6942F020029A619A6942F0010291
:100474009A611F494A6842F030024A60DA6942F4DC
:100484008022DA61A3F57C435A6822F004025A60A0
:100494005A6842F008025A605A6842F003025A60ED
:1004A4005A6822F080025A605A6842F040025A6048
:1004B4005A6822F030025A60A3F54C4340F6C41245
:1004C4009A60DA6842F00802DA60DA6842F00402FC
:1004D400DA60DA6842F40052DA60DA6842F0200244
:1004E400DA60044B80225A60704700BF001002405B
:1004F4000000014000E100E0034B1B6813F0400FD3
:10050400FAD0014B586070470048004038B50546A2
:100514000024285D20B10134E4B2FFF7EDFFF8E7D1
:1005240038BD0000034B1B6813F0400FFAD0014B99
:100534005860704700480040124B1A6842F00102AC
:100544001A605968104A0A405A601A6822F0847284
:1005540022F480321A601A6822F480221A605A68DF
:1005640022F4FE025A601A6822F0A0521A604FF474
:100574007F029A600022DA62044B4FF000629A60B4
:10058400704700BF001002400000FFF000ED00E0E3
:1005940038B5044610F0070F02D020F007040834E1
:1005A40000F0D8FC0F4B1B688BB10F4B1B681C442D
:1005B40044F2F732944210D8A34210D2094A156883
:1005C4001D44094B1C6000F04DFD284638BD074B07
:1005D40023F00703034A1360E7E70025F3E7002548
:1005E400F1E700BF20000020244400202C0000205C
:1005F400704700F1080343604FF0FF328260C3602C
:10060400036100230360704700230361704743685C
:100614004B609A688A60516099600861036801338D
:100624000360704730B40D68B5F1FF3F02D000F1AC
:10063400080202E0026904E01A4653681C68AC42EE
:10064400FAD953684B6099608A6051600861036805
:100654000133036030BC70470369416882688A6073
:10066400416851605A68824206D0002202611A68C9
:10067400013A1A601868704782685A60F5E782B0D8
:10068400002301934FF0BF0383F31188BFF36F8FEF
:10069400BFF34F8F019B002BFCD002B070470000CA
:1006A40006480068006880F3088862B661B6BFF344
:1006B4004F8FBFF36F8F00DF00BF000008ED00E035
:1006C4004FF0807340F8043C21F0010140F8081C0D
:1006D400034B40F80C3C40F8202C4038704700BFD6
:1006E400830600084FF0BF0383F31188BFF36F8FB5
:1006F400BFF34F8F024A136801331360704700BF82
:1007040000000020034A1368013B13600BB983F314
:100714001188704700000020054B00221A6005492B
:100724000A60054A4BF67F31116007221A60704750
:1007340010E000E018E000E014E000E010B50B4B1E
:100744001A6842F47F021A601A6842F07F421A6003
:10075400FFF7E2FF0024064B1C60FFF7A1FF00F047
:100764000DFDFFF78CFF204610BD00BF20ED00E01B
:100774000000002010B50446FFF7B4FFA26BE36B42
:100784009A4204D00024FFF7BDFF204610BD012487
:10079400F9E710B50446FFF7A5FFA36B23B90124BD
:1007A400FFF7B0FF204610BD0024F9E770B50446FA
:1007B4001646856B026C5AB903681BB100200135DB
:1007C400A56370BD806800F0A1FD0023A360F6E777
:1007D4006EB9406800F0FDFD226C636813446360E9
:1007E400A268934219D3236863600020E7E7C068D6
:1007F40000F0EFFD226C5242E3681344E360216889
:100804008B4202D2A3681A44E260022E01D0002077
:10081400D5E725B1013D0020D1E70020CFE7002036
:10082400CDE7026C72B110B5C3681344C360846829
:10083400A34201D30368C3600C46C168204600F09C
:10084400C8FD10BD704738B50546FFF74BFF95F856
:10085400454064B203E000F053FD013C64B2002C57
:1008640008DD6B6A33B105F1240000F0D3FC0028E5
:10087400F3D0F0E7FF2385F84530FFF743FFFFF798
:1008840031FF95F8444064B203E000F039FD013CC7
:1008940064B2002C08DD2B6933B105F1100000F0BF
:1008A400B9FC0028F3D0F0E7FF2385F84430FFF7C4
:1008B40029FF38BD38B504460D46FFF713FF2168FC
:1008C400E26B236C03FB0210A0600020A063616054
:1008D400013A02FB0313E360FF2384F8443084F8F5
:1008E4004530A5B923691BB9FFF70CFF012038BDBA
:1008F40004F1100000F08EFC0028F5D0084B4FF0F6
:1009040080521A60BFF34F8FBFF36F8FECE704F18F
:100914001000FFF76EFE04F12400FFF76AFEE3E720
:1009240004ED00E010B5029B0C4639B91B60D86396
:100934001C6401211846FFF7BDFF10BD1A60F6E7DD
:10094400F0B583B005460E46174601FB00F048306B
:10095400FFF71EFE044638B100903B4600F1480202
:1009640031462846FFF7DEFF204603B0F0BD000005
:10097400F0B585B004460F4601921E46002539E0C5
:10098400324639462046FFF711FF636A6BB938B126
:100994003C4B4FF080521A60BFF34F8FBFF36F8F01
:1009A400FFF7B0FE012005B0F0BD04F1240000F013
:1009B40031FC0028F4D0334B4FF080521A60BFF35F
:1009C4004F8FBFF36F8FEBE7FFF79CFE0020EAE742
:1009D40002A800F05BFC012519E0002384F84430F0
:1009E40021E0002384F8453023E02046FFF72BFF65
:1009F40000F038FBFFF776FEA26BE36B9A42BFD39D
:100A0400022EBDD0019B002BDED0002DE0D0FFF7DD
:100A140079FE00F09FFAFFF765FE94F844305BB26C
:100A2400B3F1FF3FD9D094F845305BB2B3F1FF3F47
:100A3400D7D0FFF767FE01A902A800F033FCC8B9BC
:100A44002046FFF797FE0028CFD0019904F110004B
:100A540000F0D2FB2046FFF7F6FE00F003FB00286F
:100A6400C8D1084B4FF080521A60BFF34F8FBFF3C9
:100A74006F8FBFE72046FFF7E6FE00F0F3FA002091
:100A840091E700BF04ED00E0F0B585B004460F46E1
:100A9400019200263CE039462046FFF7C2FE013DA4
:100AA400A563236923B9FFF72DFE012005B0F0BD2E
:100AB40004F1100000F0AEFB0028F4D0344B4FF0EA
:100AC40080521A60BFF34F8FBFF36F8FEBE7FFF7CE
:100AD40019FE0020EAE702A800F0D8FB012621E075
:100AE400002384F8443029E0002384F845302BE0C7
:100AF4002046FFF7A8FE00F0B5FA09E02046FFF70C
:100B0400A2FE00F0AFFA2046FFF743FE00283DD1D5
:100B1400FFF7E8FDA56B002DBDD1019B002BD6D0BE
:100B2400002ED8D0FFF7EEFD00F014FAFFF7DAFD3F
:100B340094F844305BB2B3F1FF3FD1D094F8453020
:100B44005BB2B3F1FF3FCFD0FFF7DCFD01A902A8F0
:100B540000F0A8FB0028D1D12046FFF71AFE002898
:100B6400C6D0019904F1240000F046FB2046FFF7AB
:100B74006AFE00F077FA0028CAD1054B4FF0805284
:100B84001A60BFF34F8FBFF36F8FC1E700208DE76B
:100B940004ED00E010B50446FFF7A4FDA46BFFF7D5
:100BA400B1FD204610BD0000084B1B681B6823B92B
:100BB400074B4FF0FF321A607047044B1B68DB6829
:100BC400DB685A68024B1A60704700BF2C4400204F
:100BD400D844002010B50446006BFFF709FD2046F9
:100BE400FFF706FD10BD2DE9F04780469946089DA4
:100BF400099F0A9C266B02F18042013A06EB8206A9
:100C040026F0070681B3084600230F2B06D8C25CE2
:100C1400E11881F834200AB10133F6E7002384F89F
:100C24004330042D00D90425E56265644FF0000AC1
:100C3400C4F848A0201DFFF7E7FC04F11800FFF7F3
:100C4400E3FC2461C5F10505A5616462C4F84CA008
:100C540084F850A04A4641463046FFF731FD2060F3
:100C640007B13C60BDE8F087002384F83430D8E74E
:100C740038B50024042C08D804EB840293000E48F1
:100C84001844FFF7B6FC0134F4E70C4D2846FFF78F
:100C9400B0FC0B4C2046FFF7ACFC0A48FFF7A9FC5C
:100CA4000948FFF7A6FC0948FFF7A3FC084B1D60A1
:100CB400084B1C6038BD00BF34440020AC44002005
:100CC400C0440020E444002010450020FC440020DF
:100CD4002C4400203044002010B50446FFF702FDE8
:100CE400204A1368013313601F4B1B685BB11F4B11
:100CF4001B686BB91C4B1B68DA6AE36A9A4207D813
:100D0400194B1C6004E0184B1C601368012B26D09F
:100D1400174A136801331360E36A01229A401549A4
:100D2400086802430A6003EB83039A00211D1248FA
:100D34001044FFF76CFCFFF7E5FC0C4B1B686BB130
:100D4400094B1B68DA6AE36A9A4207D20B4B4FF0ED
:100D540080521A60BFF34F8FBFF36F8F10BDFFF740
:100D640087FFD5E79844002028440020F844002059
:100D7400A4440020A84400203444002004ED00E0F2
:100D84000F4B1B68D3B110B5FFF7ACFC0D4BDB6800
:100D9400DC68201DFFF760FC0B4A1368013B1360FD
:100DA400074A1368013B1360FFF7ACFC2046FFF7CA
:100DB40011FF034B1B68002BE6D110BD704700BF29
:100DC4009C440020104500209844002008B5FFF7FB
:100DD400D7FF064B1B68012BF9D9054B4FF0805206
:100DE4001A60BFF34F8FBFF36F8FF0E734440020D6
:100DF40004ED00E070B504460E461D4B1D681D4B06
:100E040018680430FFF728FC50B91A4B1B68DA6ADB
:100E1400012303FA02F218490B6823EA02030B6068
:100E2400B4F1FF3F0DD02C44124B1B685C60A5420B
:100E340010D9124B18680F4B19680431FFF7F2FBF5
:100E440070BD002EEFD00B4B196804310C48FFF72E
:100E5400DEFBF5E70B4B1868064B19680431FFF706
:100E6400E1FB094B1B68A342EAD9074B1C60E7E787
:100E74002445002028440020A844002030440020B9
:100E8400FC4400202C440020D84400202DE9F043E9
:100E940085B007468846144699469000FFF778FBCC
:100EA400E8B106465420FFF773FB054698B1066384
:100EB400D5B10023039302950D9B01930C9B0093E2
:100EC4004B46224641463846FFF78DFE2846FFF73B
:100ED40003FF012005E03046FFF78AFBE8E74FF007
:100EE400FF3005B0BDE8F0834FF0FF30F9E70000B4
:100EF40000B583B0114B0193002300938022104965
:100F04001048FFF7C3FF012802D003B05DF804FBCB
:100F14004FF0BF0383F31188BFF36F8FBFF34F8F7D
:100F2400094B4FF0FF321A60084B01221A60084B3C
:100F340000221A60FFF702FCE7E700BFD444002058
:100F44002C140008D10D0008D8440020F8440020D7
:100F540024450020024A136801331360704700BF20
:100F6400A0440020F8B5344B1B68002B5DD1334BF3
:100F74001E6801361E60AEB1314B1B68B3424AD9BC
:100F84000027304B1B68DB6A03EB83039A002E4B6C
:100F94009B58012B00D901272C4B1B68002B49D0EF
:100FA400012747E02A4A11682A4B18681060196023
:100FB400294A136801331360FFF7F6FDDCE70127C4
:100FC400234B1B681B6843B3214B1B68DB68DC683D
:100FD40063689E4226D3251D2846FFF73DFBA36A7E
:100FE4001BB104F11800FFF737FBE36A01229A40B2
:100FF4001A49086802430A6003EB83039A002946EE
:1010040011481044FFF703FBE26A0E4B1B68DB6ACE
:101014009A42D4D2D4E70027D2E7094B4FF0FF32EB
:101024001A60AEE7064A1360ABE70D4A1368013352
:10103400136000273846F8BDA04400202445002052
:10104400D8440020284400203444002028450020AF
:101054002C44002030440020DC440020A84400201C
:10106400E044002038B5FFF73DFB2E4B1A68013AE7
:101074001A601B68002B4DD12B4B1B680BB9002445
:1010840049E00024294B1B681BB3284BDB68DC6850
:1010940004F11800FFF7E0FA251D2846FFF7DCFAF3
:1010A400E36A01229A402249086802430A6003EB7A
:1010B40083039A0029461F481044FFF7A8FAE26AFE
:1010C4001D4B1B68DB6A9A42DCD31C4B01221A605D
:1010D400D8E70CB1FFF768FD194B1C6874B9174BBE
:1010E4001B68E3B1174B4FF080521A60BFF34F8F68
:1010F400BFF36F8F01240EE0013C07D0FFF732FFEE
:101104000028F9D00D4B01221A60F5E70C4B0022A0
:101114001A60E4E70024FFF7F5FA204638BD0024FE
:10112400F9E700BFA044002098440020E4440020D4
:10113400A8440020344400202844002028450020EE
:10114400E044002004ED00E010B540B90A4B4FF034
:1011540080521A60BFF34F8FBFF36F8F10BD0446E8
:10116400FFF7F8FE00212046FFF744FEFFF77AFF61
:101174000028F3D1EAE700BF04ED00E0194B1B6837
:101184001BB1194B01221A60704710B4164B002290
:101194001A60164B1B68B3FA83F3DBB2C3F11F0367
:1011A40013489A00D418A10001444C6864684C6048
:1011B4001A4491000831084484420AD003EB8303A3
:1011C4009A000B4B13445B68DA680A4B1A6010BC34
:1011D4007047606803EB83029100054A0A4450603B
:1011E400ECE700BFA044002028450020A8440020CC
:1011F400344400202844002010B50C46044B1968E0
:101204001831FFF70FFA01212046FFF7F3FD10BD57
:101214002844002038B5C368DC6804F11805284662
:10122400FFF71AFA134B1B68E3B9251D2846FFF78D
:1012340013FAE36A01229A400F49086802430A60DC
:1012440003EB83039A0029460C481044FFF7DFF9A7
:10125400E26A0B4B1B68DB6A9A4208D90120094BEE
:10126400186005E029460848FFF7D1F9F0E70020A7
:1012740038BD00BFA0440020A8440020344400200E
:101284002844002028450020E4440020034B1B6828
:101294000360034B1B684360704700BFDC440020BD
:1012A40024450020F8B504460D46FFF71BFA124BFF
:1012B40019686368C81A2A68B2F1FF3F14D0276816
:1012C4000E4E3668B74201D08B4212D9824203D8FF
:1012D40000232B60012408E05B1A13442B60204692
:1012E400FFF7D4FF002400E00024FFF70BFA2046A8
:1012F400F8BD0124F9E700BF24450020DC440020A8
:10130400014B01221A60704728450020002834D080
:1013140038B50446826C013A8264C06A616C8842C2
:101324002DD00AB1002038BD251D2846FFF794F9B9
:1013340068B9E36A03EB83018A0012498A5832B917
:1013440001229A4010490B6823EA02030B60636C84
:10135400E362C3F10502A261012404FA03F20A491B
:10136400086802430A6003EB83039A002946054890
:101374001044FFF74CF92046D5E7002070470020C1
:10138400D1E700BF34440020A8440020002103E03A
:101394000A4B5B584350043109480A4B42189A429D
:1013A400F6D3094A02E0002342F8043B074B9A4271
:1013B400F9D3FFF7C1F8FEF78DFF70473C1400081E
:1013C400000000200400002004000020304500201C
:1013D400FEE70A44914200F1FF3300D1704710B593
:1013E40011F8014B914203F8014FF9D110BD0000EF
:1013F400F8B500BFF8BC08BC9E467047F8B500BFFE
:08140400F8BC08BC9E467047CD
:10140C004F46460D0A0000004F4E0D0A000000002A
:10141C004C454431000000004C45443200000000B3
:08142C0049444C45000000009A
:041434004D0200085D
:041438002502000881
:04143C00AAAAAAAA04
:04000005080013914B
:00000001FF
