:020000040800F2
:100000000000022001050008510500085105000804
:1000100051050008510500085105000800000000C6
:10002000000000000000000000000000C102000805
:100030005105000800000000F10200083503000827
:100040005105000851050008510500085105000838
:100050005105000851050008510500085105000828
:100060005105000851050008510500085105000818
:100070005105000851050008510500085105000808
:1000800051050008510500085105000851050008F8
:1000900051050008510500085105000851050008E8
:1000A00051050008510500085105000851050008D8
:1000B00051050008510500085105000851050008C8
:1000C00051050008510500085105000851050008B8
:1000D00051050008510500085105000851050008A8
:1000E0005105000851050008510500085105000898
:1000F0005105000851050008510500085105000888
:100100005105000851050008510500085105000877
:100110005105000851050008510500085105000867
:100120005105000851050008510500085105000857
:100130005105000800000000000000005105000803
:100140005105000851050008510500085105000837
:100150005105000851050008510500085105000827
:100160005105000851050008510500085105000817
:1001700051050008510500080000000000000000C3
:080180005105000851050008BB
:100190000348044B834202D0034B03B11847704716
:1001A0000000002000000020000000000548064973
:1001B000091A891001EBD171491002D0034B03B128
:1001C00018477047000000200000002000000000D9
:1001D00010B5064C237843B9FFF7DAFF044B13B18F
:1001E0000448AFF300800123237010BD00000020FD
:1001F000000000009C05000808B5054B1BB105492F
:100200000548AFF30080BDE80840FFF7CFBF00BF4F
:1002100000000000040000209C0500080E4B1A6B33
:1002200042F002021A631A6B42F001021A63A3F54C
:1002300050531A6842F480621A609A6942F02002B0
:100240009A61A3F580631A6842F001021A609A6904
:1002500042F001029A61FEE700380240054BD3F8F4
:10026000882042F47002C3F888204FF000629A6040
:10027000704700BF00ED00E043684B609A688A60F9
:100280005160996008610368013303607047036936
:10029000416882688A60416851605A68824206D02B
:1002A000002202611A68013A1A6018687047826871
:1002B0005A60F5E7000000000000000000000000A8
:1002C000074B19680868B0E8F00F80F30988BFF39E
:1002D0006F8F4FF0000080F311884EF00D0E7047C5
:1002E0001C000020000000000000000000000000D2
:1002F000EFF30980BFF36F8F0D4B1A6820E9F00F01
:1003000010602DE908404FF0BF0080F3118800F025
:10031000B3F84FF0000080F31188BDE80840196879
:100320000868B0E8F00F80F30988BFF36F8F70475B
:100330001C00002008B54FF0BF0383F31188BFF302
:100340006F8FBFF34F8F00F021F818B1034B4FF0C0
:1003500080521A60002383F3118808BD04ED00E089
:10036000084B1B681B6823B9074B4FF0FF321A601C
:100370007047044B1B68DB68DB685A68024B1A60E5
:10038000704700BF2000002094000020F8B52F4BDC
:100390001B68002B52D12E4B1E6801361E6056B1D1
:1003A0002C4B1B68B3423FD900272B4B1B68002BFB
:1003B00049D0012747E0294A1168294B1868106085
:1003C0001960284A136801331360FFF7C9FFE7E794
:1003D0000127224B1B681B6843B3204B1B68DB685B
:1003E000DC6863689E4226D3251D2846FFF74FFF31
:1003F000A36A1BB104F11800FFF749FFE36A1A4A28
:100400001268934201D9184A136003EB83039A00E0
:10041000294616481044FFF72FFFE26A144B1B6869
:10042000DB6A9A42D4D2D4E70027D2E7094B4FF0D7
:10043000FF321A60B9E7074A1360B6E70D4A13683E
:100440000133136000273846F8BD00BF8C00002040
:10045000A000002094000020A40000202000002024
:100460002400002098000020900000202800002098
:100470001C0000209C0000201C4B1B681BB11C4B67
:1004800001221A60704710B4194B00221A60194BF0
:100490001B6800E0013B03EB83018A0016498A5880
:1004A000002AF7D008469A00D418A10001444C68ED
:1004B00064684C601A4491000831084484420DD0AD
:1004C00003EB830291000C4A0A445268D1680B4A3C
:1004D0001160084A13605DF8044B7047606803EBD5
:1004E00083029100044A0A445060E9E78C0000202E
:1004F000A400002090000020280000201C00002004
:10050000DFF834D0002103E00C4B5B58435004313A
:100510000B480C4B42189A42F6D30B4A02E00023D8
:1005200042F8043B094B9A42F9D3FFF797FE00F0DB
:1005300011F8FFF773FE704700000220BC050008A9
:10054000000000200000002000000020A800002083
:10055000FEE7000070B50D4D0D4C641BA410002685
:10056000A64209D10B4D0C4C00F018F8641BA410E6
:100570000026A64205D170BD55F8043B98470136C8
:10058000EEE755F8043B98470136F2E7B40500085A
:10059000B4050008B4050008B8050008F8B500BFA8
:1005A000F8BC08BC9E467047F8B500BFF8BC08BC54
:0405B0009E467047AC
:0405B400F901000841
:0405B800D101000865
:0400000508000501E9
:00000001FF
